:020000041000EA
:1000000000200008CB0000100D0000002D010010A2
:1000100000000000000000000000000000000000E0
:100020000000000000000000000000002901001096
:10003000000000000000000029010010290100104C
:1000400029010010290100102901001029010010C8
:1000500029010010290100102901001029010010B8
:1000600029010010290100102901001029010010A8
:100070002901001029010010290100102901001098
:1000800010B5064C2378002B07D1054B002B02D06E
:10009000044800E000BF0123237010BDD402000813
:1000A0000000000074110010044B10B5002B03D0A9
:1000B0000349044800E000BF10BDC0460000000036
:1000C000D8020008741100107047FFF7FDFF72B6E8
:1000D0000F4C104DAC4209DA21686268A368043BFA
:1000E00002DBC858D050FAE70C34F3E70A490B4A50
:1000F0000020521A02DD043A8850FCDC0848094905
:100100000860BFF34F8F00F0E7F800F073F9FEE7E7
:100110007811001090110010D4020008CC040008DF
:100120000000000808ED00E0FEE7FEE700B504204F
:100130007146084202D0EFF3098001E0EFF3088036
:10014000043000F0DBFBFEE710B5002000F096FA6B
:1001500010BD7047E02370B54F4C9B00E2580F2351
:10016000D021072013409A001219890051580140EC
:1001700065D0042959D04948002B65D1B223B1225A
:100180000321DB00D200E558A358A6581B0F360FF9
:100190000B400E4204D0A258120F0A40012A01D18E
:1001A000EA0701D4032B11D1B0233D4ADB00E55807
:1001B000A158E658C904C90C00F0AEFDAD03AD0B63
:1001C0006843F101C90F013100F0A6FDE0239B0057
:1001D000E358344A9B069B0FD840334B1860334B8F
:1001E000D458D158240A090E013100F095FD304B46
:1001F000E1B21860013100F08FFD2E4B0400186051
:100200002D4B2E4918602E4BC01800F085FDFA21A9
:100210002C4B890018702C4BE01800F07DFD2B4B07
:1002200018602B4BC003186070BDC0218900525864
:100230001F210A40112A04D1802000029CE7254892
:100240009AE7FA20C00197E7012BBFD1C823C0224B
:100250000321DB00D200E558A358A6581B0F360F28
:100260000B400E4204D0A258120F0A40012A01D1BD
:10027000EA0701D4032BA9D1C022D200A358A15868
:10028000A5587F221F261340090A3140584300F029
:1002900043FD290C314097E70000264000366E01EF
:1002A00084050000000020408400000808100000C1
:1002B00088000008800000089000000840420F00FD
:1002C0003F420F0098000008E70300009400000878
:1002D0008C00000800127A0010B51D4800F0A8F844
:1002E000B022E02130201B4CD200A35889005B00D3
:1002F0005B08A35063588343635080235B04A3507F
:10030000154B164AE250A02204339201E250FF221C
:10031000134BE25000F098FCC02201215200A35878
:100320008B43A350FFF715FFFFF714FF0D4A802101
:10033000042000F00BFA0C4800F080F80B4B1B680F
:1003400051331B78002B02D0094800F0E3F810BDB0
:10035000C40E0010000026408405000001000200C9
:100360008C050000F002000800030008C804000823
:10037000900E001010B5902400F053F8074B640164
:100380001A5907491140074A0A431A51102259685D
:100390001142FCD000F049F810BDC04600002040DA
:1003A000FCFF00000100FA05F8B590250E4C6D0128
:1003B000070000F036F863590600DB439B0701D1C4
:1003C000FFF7D8FF80239B00E7506359074A1A4084
:1003D000074B13436351102362681A42FCD030006C
:1003E00000F023F8F8BDC04600002040FCFF0000EC
:1003F0000300FA0510B562B60348FFF7D5FF0020E9
:1004000000F08CFBFBE7C04600200010000000005D
:100410000230800803D001300238FCD1C046C0460B
:100420007047EFF3108072B6704780F31088704702
:10043000014B18607047C046C8040008024B1A6898
:10044000002A00D11860704780040008F7B52C4DD1
:100450001F002B68040000910192002B03D1B521ED
:10046000284800F03BFA2C23FF225C432B683D0018
:100470001C193B0A3F0CA760234F134063603B6885
:100480001540256031331B789D4204D3C4211F4899
:10049000FF3100F023FA3B681A00B032128855434E
:1004A0001A6A3233AD1825611B7865689D4204D302
:1004B000E0211648FF3100F011FA3B6880351B6AD5
:1004C0006D01A668ED186561330C09D0FF210F4F4F
:1004D0004900380000F002FA0D49380000F0FEF93A
:1004E00033041A0C1343AB60019BE361009B23624E
:1004F0000023A361089B002B01D01B782373F7BD59
:10050000800400087C0F0010C8040008E20F0010EF
:10051000FF010000F0B5040085B0002803D152218E
:10052000214800F0DBF96368032B03D954211E48EE
:1005300000F0D4F9E36A002B03D158211A4800F0E7
:10054000CDF9236B002B03D15921174800F0C6F9D0
:10055000A36802AD2B70154B22681B68E16ADB8E25
:10056000E0689B186B706368A26A03930095236927
:10057000266A676AFFF76AFF00213B000A000091C4
:100580003000FFF763FF216B280000F053F90023D0
:10059000EB56002B06DB1F2213401E3A9A40130035
:1005A000034A136005B0F0BD7C0F0010C8040008BA
:1005B00000E100E0002373B504000193984204D1E8
:1005C000D2212C48FF3100F089F92369002B04D196
:1005D000E9212848490000F081F96369002B04D122
:1005E000D4212448FF3100F079F9236A002B04D18B
:1005F000EA212048490000F071F96269D5682B0CA6
:1006000022D01B04136013681B4B20691B68B43392
:100610001B68C3181B68002B16DA01A900F060FBE9
:100620000026B0420CD10198E26903681E0CDBB2CF
:100630009A4205D9226A9B009B58002B00D098470C
:100640003100206900F012FBADB2002D09D06369C2
:100650001D6000251B68636AAB4205D09847656240
:10066000A56163691B6873BDA36A002BF8D0984726
:10067000F6E7C0467C0F0010C804000870B5084CAF
:1006800005002368002B04D1B2210648FF3100F099
:1006900025F92C20454320684019FFF78BFF70BDDA
:1006A000800400087C0F001070B50A4D04002B6810
:1006B00031331B78834204D8C4210748FF3100F04E
:1006C0000DF92B681A00B03210884443186A2018BC
:1006D00070BDC046C8040008E20F0010F8B5174B03
:1006E0000D001B6831331B78834225D9002923D0A4
:1006F0001F240B681C401FD1FFF7D6FF07002B6893
:100700000F4EDA0821003060686800F091FB21008C
:10071000380000F0ABFA21002A00306800F0C6FA79
:10072000041E07D10100306800F0A0FA0300200089
:10073000002B00D00348F8BD0348FCE7C8040008BC
:100740008C04000801018A0003018A0010B50C0026
:10075000002A07D100290DD1FFF7A6FF064B18602C
:10076000200010BD002905D004490C604A60FFF745
:10077000B5FFF6E70248F4E78C040008840400089B
:1007800003018A0070B51A4E050033680C001A0088
:1007900028321278012A15D18208072110008843D7
:1007A0000FD103202840C00084401B6892002033F2
:1007B0009B182200FF24844019684A4014404C4092
:1007C0001C6070BD5B8FDBB28B4203D17621094880
:1007D00000F084F8072080220540802033689201D1
:1007E0001B680006A4180543A400E550E9E7C046CD
:1007F000C8040008481000100A4B70B59B680A4EE8
:1008000010300D008400B34209D1002904D13821F1
:100810000648FF3100F062F83059355170BD044B85
:100820001859FBE700ED00E0000000084810001038
:1008300000000010F8B506000D00002841D0436804
:10084000032B03D93221204800F048F8002030560D
:10085000002828DB7178FFF795FF0024FF22002095
:100860000327944630567168C3B21F40FF006646A6
:10087000BA4089013140D243B940002815DB134EFC
:1008800083089B009B19C026B6009F593A4011432C
:1008900099510F4B9A680F4B9A4202D12900FFF7EA
:1008A000ABFF2000F8BD0C4CD8E70F263340083BC7
:1008B000074E9B089B009B19DE6932401143D961AA
:1008C000E7E7054CEDE7C0464810001000E100E006
:1008D00000ED00E0000000080100560070B50D00BA
:1008E000044C01001822200000F0AAFAA56101BE04
:1008F000FEE7C04698020008FEE7000002680A4BC7
:1009000010B5DA6142681A6282685A62C2689A62F5
:100910000269DA6242691A6382695A63C2699A6338
:10092000FFF7EAFF10BDC04698020008B0235B0540
:100930005A782120002A01D05878C0B27047B023DD
:100940005B059A89002A02D0988980B2704780207E
:100950004000FBE710B5074C236831331B78002BB0
:1009600004D1C4210448FF31FFF7B8FF2368186A97
:1009700010BDC046C8040008E20F001030B50400E6
:1009800085B00D00042803D927492848FFF7A6FFA2
:100990006B1E012B07D9FB222B1F134203D02449C6
:1009A0002248FFF79BFF234BA400E458042D01D0FD
:1009B000012D1AD100200FE0A3682B420BD1E36870
:1009C00029001A685B6802920193039302A82368C6
:1009D0009847194B1C606469002C04D0174B98424F
:1009E000EAD1012DE8D105B030BD022D06D1124B60
:1009F0001B68181EF7D01C6903E01C006369002BFC
:100A0000FBD10020002CEED0A3682B4209D1E36873
:100A100029001A685B6802920193039302A8236875
:100A200098472469EEE7C046DC090000AC100010CE
:100A3000DD0900009404000890040008FF00420053
:100A400010B5041E03D111491148FFF747FFF222E8
:100A5000104BD2011B68DB689A582260F022D20149
:100A60009A5862600C4A9A58A2600C4A9A58E260FE
:100A70000B4A9A5822610B4A9A5862610A4A9A585C
:100A8000A2610A4A9B58E36110BDC046CB0A000030
:100A9000AC100010C80400080478000008780000BA
:100AA0000C7800001078000014780000187800001E
:100AB00010B5041E03D110491048FFF70FFFF022B4
:100AC0000F4B61681B68D201DB689950A1680D4A21
:100AD0009950E1680C4A995021690C4A9950616912
:100AE0000B4A9950A1690B4A9950E1690A4A9950F9
:100AF0002168E832995010BDF30A0000AC100010D4
:100B0000C804000804780000087800000C78000091
:100B1000107800001478000018780000F7B507007E
:100B2000012803D940494148FFF7D8FE404D6B6882
:100B3000002B4AD1FFF775FC6B680190002B56D152
:100B40003C4E33681A0043321278002A07D09B6863
:100B5000E0331B68DB0602D53748FFF771FFFFF76C
:100B6000EEFE80235B00984246D1380000F088F901
:100B7000002433681A0043321278002A17D0002864
:100B800015D09B68E0331B68DB0610D5FFF7CEFE5F
:100B9000294B212808D032681300B0331988072365
:100BA0004B43126A9B18DB681800FFF781FF01981E
:100BB000FFF73BFC002C0ED16B68002B03D0082103
:100BC0000120FFF7DBFE2000FEBD01210800FFF73A
:100BD000D5FE041EAED06B68002B03D0022101208D
:100BE000FFF7CCFE154B9C42EDD0154CEBE70421F2
:100BF0000120FFF7C3FEA3E7FFF7ACFE3368B43371
:100C00001B68C0180368002B0BDB04230D4A116915
:100C10000B431361012F02D030BF0020A8E720BF93
:100C2000FBE70020054CA4E7A5020000AC10001073
:100C300094040008C8040008A80400080500420045
:100C4000FF00420000ED00E0C02280200649520073
:100C50008B58C0059B009B0803438B50802388580A
:100C60001B0603438B507047000026400B4B70B5AA
:100C70001B680500B4331B680C00C3181B68002BED
:100C800009DA0B0C03D006490648FFF727FE0020BF
:100C9000A4B26C6070BD0448FCE7C046C8040008FC
:100CA000D5020000E20F001001008A00036870B551
:100CB00005000C00002B0ADAC2600B0C03D00549BA
:100CC0000548FFF70BFE0020A4B2AC6070BD0348DE
:100CD000FCE7C046BB020000E20F001001008A00E2
:100CE00070B505000C1E03D199210848FFF7F6FDE9
:100CF000074B1B68B4331B68EB181B68002B03DA27
:100D00000020EB68236070BD0248FCE70F11001063
:100D1000C804000801008A00002243088B4274D3F3
:100D200003098B425FD3030A8B4244D3030B8B42EC
:100D300028D3030C8B420DD3FF22090212BA030CF5
:100D40008B4202D31212090265D0030B8B4219D3D6
:100D500000E0090AC30B8B4201D3CB03C01A5241F6
:100D6000830B8B4201D38B03C01A5241430B8B423E
:100D700001D34B03C01A5241030B8B4201D30B0327
:100D8000C01A5241C30A8B4201D3CB02C01A52414E
:100D9000830A8B4201D38B02C01A5241430A8B4211
:100DA00001D34B02C01A5241030A8B4201D30B02FA
:100DB000C01A5241CDD2C3098B4201D3CB01C01A14
:100DC000524183098B4201D38B01C01A524143091E
:100DD0008B4201D34B01C01A524103098B4201D30C
:100DE0000B01C01A5241C3088B4201D3CB00C01A79
:100DF000524183088B4201D38B00C01A52414308F1
:100E00008B4201D34B00C01A5241411A00D2014615
:100E1000524110467047FFE701B5002000F006F888
:100E200002BDC0460029F7D076E770477047C0463C
:100E300003001218934200D1704719700133F9E78B
:100E400030B50500002A00D130BD0C78013A6B1C8A
:100E50002C700131002C05D19A189A42F4D01C70E4
:100E60000133FAE71D00EDE7F8B5C046F8BC08BC51
:100E70009E467047F8B5C046F8BC08BC9E46704711
:100E800001B40248844601BC604700BFA5000008C9
:100E9000030000000100000001000000000000004D
:100EA00005036000040000000100000000000000D5
:100EB0000100000006046000080000006004000853
:100EC00049010010000020400000244000000040C4
:100ED00000000000000023400000304000003140CE
:100EE00000009F4000002240000010400202020269
:100EF000020202020210101D800017007500FF039D
:100F00000602063604102000000000007FC000002A
:100F100000040000000000000019324B647D0080D6
:100F20004000080B100000000000FF012002001F1D
:100F300000800004FF081018001000140018001CA6
:100F40004044484C50000000081000000800000019
:100F50000400000004100000001200000421000042
:100F6000002100000016000040114002C4130013CD
:100F70008013A013200000001C000000433A2F55EE
:100F8000736572732F766D65642F4D6F647573543E
:100F90006F6F6C626F785F312E312F6C6962726196
:100FA000726965732F70736F633673772D312E31CD
:100FB0002F636F6D706F6E656E74732F70736F63D8
:100FC0003670646C2F647269766572732F736F75F7
:100FD0007263652F63795F6970635F706970652EF6
:100FE0006300433A2F55736572732F766D65642FD6
:100FF0004D6F647573546F6F6C626F785F312E3113
:101000002F6C69627261726965732F70736F6336DA
:1010100073772D312E312F636F6D706F6E656E7427
:10102000732F70736F633670646C2F6472697665AA
:1010300072732F696E636C7564652F63795F697075
:10104000635F6472762E6800433A2F55736572733E
:101050002F766D65642F4D6F647573546F6F6C627E
:101060006F785F312E312F6C6962726172696573BE
:101070002F70736F633673772D312E312F636F6D41
:10108000706F6E656E74732F70736F633670646CFF
:101090002F647269766572732F736F757263652F33
:1010A00063795F737973696E742E6300433A2F55C9
:1010B000736572732F766D65642F4D6F647573540D
:1010C0006F6F6C626F785F312E312F6C6962726165
:1010D000726965732F70736F633673772D312E319C
:1010E0002F636F6D706F6E656E74732F70736F63A7
:1010F0003670646C2F647269766572732F736F75C6
:101100007263652F63795F737973706D2E6300432B
:101110003A2F55736572732F766D65642F4D6F642A
:101120007573546F6F6C626F785F312E312F6C69FD
:10113000627261726965732F70736F633673772D96
:10114000312E312F636F6D706F6E656E74732F70FB
:10115000736F633670646C2F647269766572732F77
:10116000736F757263652F63795F6970635F647213
:10117000762E630000000000000000100000000850
:101180008000000098110010800000081802000084
:10119000D4020008F801000000093D0000127A00A6
:1011A00000093D000000D00700093D00A00F00002D
:1011B00004000000A900001081000010F7B56E4D7A
:1011C00004002A68536800931300B033198807237A
:1011D0004B43126A9B181A68002AFCDA00F0E0F808
:1011E0002A681300B033198807234B43212800D005
:1011F00096E0116A5B180221D8680143D960D9686A
:10120000C9072FD508208446944460461600D96843
:10121000C06F019111688836081835680768491948
:101220000D683902FF273F040F40694689882D0A5F
:101230002D0639432943D960902103684F4D090198
:101240002B400B430360136830681B181868054077
:101250002943196013686246D26F9A18126832687F
:101260009B181B68444D2A681300B0331988072364
:101270004B43126A9B1800225A600423404A1169AA
:101280000B431361012C50D030BF2A681300B033D8
:10129000198807234B43126A9B181A68002AFCDA44
:1012A00000F07EF8212842D1296807220B00012492
:1012B000B0331B8800205A430B6AD318DD682542DF
:1012C0001CD0080008300D68C06F2C4E2818056827
:1012D000DB6835401B0C1B061B0C2B4303600B000B
:1012E000883318680B6818180B6A0568D318DB6810
:1012F0002E401B0E1B023343036020000B6A0221A9
:10130000D218D3688B43D3601B4B1A681300B033D9
:10131000198807234B43126A9B1800225A60FEBDAE
:10132000126A9B18174ADA609CE720BFADE70020DD
:10133000009BFC331B698342E6D1A320124B134967
:10134000134A144FC0000E681D5814680F6006271A
:101350001F503E20106010483E371F501F58002F6E
:10136000FCDA00980D4FFC3007610E60A321C90024
:101370005D5001201460C7E7C8040008FF00FFFFAC
:1013800000ED00E0A8040008000026400801264007
:10139000040126401E1F00001C050000AAAAAAAADC
:1013A00001B40248844601BC604700BF2D0900100B
:1013B000000000000000000000000000000000002D
:1013C000000000000000000000000000000000001D
:1013D000000000000000000000000000000000000D
:1013E00000000000000000000000000000000000FD
:1013F00000000000000000000000000000000000ED
:1020000000F80F087F0A03100D000000A94000101F
:10201000B1400010B9400010C140001000000000A5
:10202000000000000000000000000000D5DD0210EC
:10203000DD0A0310000000006DDE02107DDE0210DC
:10204000CDA50310E5A50310FDA5031015A60310EB
:102050002DA6031045A603105DA6031075A6031058
:102060008DA60310A5A60310BDA60310D5A60310C8
:10207000EDA6031005A703101DA70310DD0A03102A
:10208000DD0A0310DD0A0310DD0A0310DD0A031068
:10209000DD0A0310DD0A0310DD0A0310DD0A031058
:1020A000DD0A0310DD0A0310DD0A0310A9A30310E3
:1020B000DD0A0310DD0A0310DD0A0310DD0A031038
:1020C000DD0A0310DD0A0310DD0A0310DD0A031028
:1020D000DD0A0310DD0A0310DD0A0310DD0A031018
:1020E000DD0A0310DD0A0310DD0A0310DD0A031008
:1020F000DD0A0310DD0A0310DD0A0310DD0A0310F8
:10210000DD0A0310DD0A0310DD0A0310DD0A0310E7
:10211000DD0A0310DD0A0310DD0A0310DD0A0310D7
:10212000DD0A0310DD0A0310DD0A0310DD0A0310C7
:10213000DD0A0310DD0A0310DD0A0310DD0A0310B7
:10214000DD0A0310DD0A0310DD0A0310DD0A0310A7
:10215000DD0A0310DD0A0310DD0A0310DD0A031097
:10216000DD0A0310DD0A0310DD0A0310DD0A031087
:10217000DD0A0310DD0A0310DD0A0310DD0A031077
:10218000DD0A0310DD0A0310DD0A0310DD0A031067
:10219000DD0A0310DD0A0310DD0A0310DD0A031057
:1021A000DD0A0310DD0A0310DD0A0310DD0A031047
:1021B000DD0A0310DD0A0310DD0A0310DD0A031037
:1021C000DD0A0310DD0A0310DD0A0310DD0A031027
:1021D000DD0A0310DD0A0310DD0A0310DD0A031017
:1021E000DD0A0310DD0A0310DD0A0310DD0A031007
:1021F000DD0A0310DD0A0310DD0A0310DD0A0310F7
:10220000DD0A0310DD0A0310DD0A0310DD0A0310E6
:10221000DD0A0310BFA30310DD0A0310DD0A03105B
:10222000DD0A0310DD0A0310DD0A0310DD0A0310C6
:10223000DD0A0310DD0A0310DD0A0310DD0A0310B6
:10224000DD0A0310DD0A0310DD0A0310DD0A0310A6
:10225000DD0A0310DD0A0310DD0A0310DD0A031096
:10226000DD0A0310DD0A0310DD0A0310DD0A031086
:10227000DD0A0310DD0A0310DD0A0310DD0A031076
:10228000DD0A0310DD0A0310DD0A0310DD0A031066
:10229000DD0A0310DD0A0310DD0A0310DD0A031056
:1022A000DD0A0310DD0A0310DD0A0310DD0A031046
:1022B000DD0A0310DD0A0310DD0A0310DD0A031036
:1022C000DD0A0310DD0A0310DD0A0310DD0A031026
:1022D000DD0A0310B9920310DD0A0310DD0A0310B2
:1022E00010B5054C237833B9044B13B10448AFF350
:1022F00000800123237010BD00360008000000009C
:102300006C6C0B100C4B43B10C480D4910B5AFF37E
:1023100000800C48036823B910BD0A48036833B92C
:102320007047094B002BF7D0BDE810401847064B0B
:10233000002BF5D0184700BF000000006C6C0B109C
:1023400004360008C030000800000000154B002BC8
:1023500008BF134B9D46A3F5803A00218B460F46DC
:102360001348144A121A3BF0D9FB0F4B002B00D034
:1023700098470E4B002B00D0984700200021040006
:102380000D000D48002802D00C482AF05FFF3AF0FB
:10239000A7FE200029002BF039FC2BF0B7F800BF76
:1023A0000000080000F80F080000000069DB0210C0
:1023B0000036000800A100084DD202100000000005
:1023C00070B50168A2B08868002302ADCA68934264
:1023D00003D2C25CEA540133F8E722AB1A4400246A
:1023E00002F8804C1F4920482A463BF0FBFB284658
:1023F00001F07AFD0546002832D01C4901F078FD35
:1024000090B1D0E9060144F065FAC6B2304632F028
:102410000FFC009481B2FF232046224632F0CEFB0F
:10242000314613483BF0DEFB1249284601F060FDBF
:1024300098B1D0E9060144F04DFAC4B2204632F01A
:10244000F7FBFF230093002381B21A46012032F0EC
:10245000B5FB214608483BF0C5FB284601F030FBA0
:1024600022B070BD387D0410417D0410537D0410EE
:10247000587D0410797D04107F7D04102DE9F04112
:102480008248834C834E844FDFF86882A0B03BF0D3
:10249000A9FB27F017FB2060314638463BF0A2FB32
:1024A00020680022036800929D6E42460423314654
:1024B000A8470546002800F0C68078483BF092FB0C
:1024C0004FF07C502BF0ECF9E6E7754F75492A4642
:1024D00038463BF089FE394673483BF083FB23685E
:1024E0001A6852F8640C1A581844D2699047014689
:1024F0006E483BF077FB23681A6852F8640C1A5850
:102500001844126A9047014669483BF06BFB236808
:102510001A6852F8640C1A581844526A90470146D7
:1025200064483BF05FFB206803685B6E9847014698
:1025300061483BF057FB0AAE60483BF053FB182262
:10254000002130463BF0EAFA41F288315C4800F065
:1025500074F905AD4FF416735A48ADF828300F974B
:102560003BF040FB1122002128463BF0D7FA002324
:10257000029308AB93E8030000908DF8041095E8EF
:102580000E0010A827F0AEFB4F4950483BF02AFB45
:1025900020684D49036853F8645C435910AA1F68CA
:1025A00028440123B84710A827F01AFC46490246E0
:1025B00047483BF017FB2168002942D00B6853F8CD
:1025C000644C0C444348444F3CF0DAFA0546384624
:1025D0003CF0D6FAADB2214680B2404C3D4B304A79
:1025E00002900095019716A800F014F920463CF0DF
:1025F000C7FA80B20190009442F2B323324A384CB9
:10260000002116A800F01BF90CAB206005460FCB8B
:102610008DE80F00294696E80C0016A800F032FC61
:10262000304931483BF0DEFA304B00932D4A2168A7
:10263000002316A800F05FFD0A2116A800F06AFD2D
:10264000FAE70C46BEE723681A6852F8640C1A5879
:10265000184492699047014625483BF0C3FA236825
:102660001A6852F8640C1A58184492699047074641
:10267000064638463CF084FAA6EB070840457FF64C
:1026800024AF16F8013B1D44F3E700BF607B041044
:1026900054360008807B04108D7B0410C17B04102D
:1026A00048360008E47B0410EA7B0410017C041027
:1026B000147C04102C7C0410447C0410597C0410FD
:1026C0001C360008737C04108B7C0410B97C041049
:1026D000EA7C0410FE87041035830410907E0410F9
:1026E00044360008387D0410087D0410C123001012
:1026F000247D0410AD7B0410014800F08AB800BFAF
:102700001C36000810B5044601F08AFE204610BDB4
:1027100038B500F21C55044600222946012327F053
:10272000EDFF034B2360284627F0BCFD204638BD53
:102730005C2A051010B50446406810B103685B6858
:10274000984704F1280001F06BFE04F10C0027F01B
:10275000F4FB204610BD00002DE9F041077A4568E2
:1027600088461646B7B92A681946926A284690479D
:102770002B6832465B69414628469847041E16DAA4
:102780000D4B9C4216D021460C483BF02BFA4FF0E3
:10279000FF340CE000242B68321B5B6908EB04015A
:1027A000284698470028F2DB0444A642F3DC204682
:1027B000BDE8F0813C46FAE747F4FFFFA17D041035
:1027C00010B5044601F090FE236A984234BF002001
:1027D000012010BD38B504460D4601F05CFE2046D0
:1027E000256201F08AFE2046BDE8384001F028BE8F
:1027F00038B504460D4601F091FE20462946FFF704
:10280000E9FF204638BD10B5046A01F06DFE201ABC
:1028100010BD704710B58360BDF808308381039BFD
:102820000361BDF81030838241F288338361002355
:102830004260016080F8243010BD81617047F8B5B6
:1028400017461E460D4681B918202AF083FE18222D
:10285000044629463BF062F9069B6360BDF81C30D4
:1028600023812761A6822046F8BD0020F8BD08B567
:1028700003689B6D9847BDE8084027F091B970B593
:102880000368044608465D6CFFF7F1FF2B460146DE
:102890002046BDE8704018472DE9F0419846037A7C
:1028A000446886B005460E4697B22BBB01682046A9
:1028B000FFF7E5FF10B119483BF094F94146204677
:1028C00027F070FF2868FFF7D2FF05F10C083B46A0
:1028D00032460146684627F01BFB6946404627F012
:1028E000CAFA684627F029FB23684146DB68204680
:1028F000984706B0BDE8F0810068FFF7B8FF0146D1
:10290000204627F013F810B105483BF06BF93A4622
:102910003146204627F0D6FCEBE700BFBE7D041011
:10292000E67D041090F8ED21002380F8EC3180F86A
:1029300050326AB1C0F8F431C0F80432C0F8143231
:10294000C0F82432C0F83432A0F8203380F82233A3
:1029500070472DE9F04705460F4690460024BC42DB
:102960001CDAD5F800A04046FFF74DFFDAF8040066
:1029700004F1080603682E44A7EB04091B694A46C4
:1029800031469847002803DA4FF0FF30BDE8F08762
:1029900004444046FFF714FF0028E0D0BC42F3D1C6
:1029A000D5F8E80138B14FF47A71414305F5CC70A0
:1029B000FFF710FF0020BDE8F0872DE9F74F07462D
:1029C0000546084657F8D04B8846FFF71CFF012202
:1029D000034639462046FFF7BFFE0128044644D18E
:1029E0004046FFF710FFA14683464FF0050A002638
:1029F000BAF1010A12D05B4601220DF107012868E5
:102A0000FFF7AAFE012809D19DF8073003F07F02E5
:102A10001B0609FB02664FEAC919E9D4314605F1E4
:102A2000D10000F019FD0130C0F1C803B34220DB32
:102A3000002E0DDD07444046D5F80090FFF7E3FE79
:102A40003246034639464846FFF786FEB0420CD16F
:102A500095F8D040D5F8E831240933B14FF47A71B4
:102A6000594305F5E070FFF7B5FE204603B0BDE819
:102A7000F08F6FF00104F8E730B52A4D2B78BFF3E3
:102A80005B8FDB078BB004460ED428462AF0E8FBA8
:102A900050B1254801F042FD28462AF003FC234AA4
:102AA000234921482AF0D0FBD4F8E8311BB900258E
:102AB00028460BB030BD94F8EC3123B11A48FFF72B
:102AC0007FFE4542F4E704F5CC70FFF779FE28B9A4
:102AD00004F5E070FFF774FE0028E8D04FF47A7137
:102AE0006846FFF785FEC82104F1080000F033FCBA
:102AF000011E01DC002505E06A462046FFF729FF9C
:102B0000054618B1684601F08BFCD1E7012384F833
:102B1000EC31D4F8E83104484FF47A715943FFF7A7
:102B200059FEEFE75836000860360008E02200083A
:102B30000527001010B44368024693B1006860B1E5
:102B4000926812F0010F4FEA620218BF84581044D5
:102B500018BFE3585DF8044B184708465DF8044B6E
:102B600018475DF8044B70472DE9F74306460D46BC
:102B70001746044600F150084FF0FF39D4F8F4111D
:102B8000C1B1284600F03DFD002843D1AB6869681B
:102B9000D4F8F4211944501E01F1FF3C10F8012F24
:102BA000A2B3994232D993F800E0BEF12F0F1AD1A7
:102BB0002F2A27D010344445E0D1B9F1000F0CD0B2
:102BC000D6F8443213B9D6F8483243B1694606F50F
:102BD000117000970195FFF7ADFF4FF000094846CF
:102BE00003B0BDE8F0832B2A03D0232A0CD0724512
:102BF000DFE71A469445134604D012F801EFBEF100
:102C00002F0FF7D10133C9E74B1EFBE79942D1D112
:102C1000002ACFD1D4F8F83104F5FC701BB9D4F8F0
:102C2000FC31002BC6D06946009701954FF0000992
:102C3000FFF780FFBEE72DE9F0438FB005460F4652
:102C4000FFF7BBFE0D2806466BD80123834040F2F8
:102C500015241C4061D113F400585BD11A075ED5CE
:102C600005F1D00303930DAB02934FF0C8090CABF1
:102C700007AC0193CDF8109000940BAB0DF1290235
:102C800006A90DF12A00CDF81C80CDF82080CDF8E2
:102C90002480CDF8348000F061FB012843D1069BED
:102CA0008DF8283021460AAA2846FFF75DFF9DF8D7
:102CB0002840ACB1012C22D1BDF82C300093042265
:102CC0004346494605F1080000F0B6FC002818DD2F
:102CD00001463A462846FFF73CFE431C044610D006
:102CE0002846FFF7C9FE60B9ECB195F8503213B130
:102CF0002846FFF717FE20460FB0BDE8F083022CF0
:102D000002D04FF0FF34F0E7BDF82C3000930522DD
:102D10004346D6E785F8EC41E2E70024E0E70446C5
:102D2000E2E70446E1E73446E5E7F8B506460F4634
:102D300015464FF0FF342846FFF742FD40B92946BB
:102D40003046FFF778FFB842044601D00028F2DA97
:102D50002046F8BDF0B585B0054616461F46FFF77C
:102D6000F8FD044610BB012F1BD132460421284632
:102D7000FFF7DBFF042817D1C82300930DF10E02E3
:102D800005F1D00303A90DF10D0000F02BFB012884
:102D90000AD1B5F82023BDF80E309A4201D1A5F82A
:102DA0002043204605B0F0BD4FF0FF342846FFF722
:102DB000B9FDF6E770B504468CB00D46416802A82F
:102DC000FFF716FD94F850323BB14FF0FF3502A8E3
:102DD00001F026FB28460CB070BD2B8BC4F8E831FF
:102DE000AB7E003318BF012304F10806C82184F824
:102DF000ED312A46304600F0EBF9011EE5DD02AA6E
:102E00002046FFF7A6FD05460028E0D1D4F8E831BA
:102E100033B14FF47A71594304F5E070FFF7DAFCEF
:102E200002AA02212046FFF780FF02281BD04FF0A4
:102E3000FF35B4F8203373B1C82204F25121304673
:102E40003AF06EFD94F82233D4F81C1302AA2046FF
:102E5000FFF780FF0546002DB9D1012384F85032D9
:102E600084F8EC51B3E7002300938DF8043004F1AB
:102E7000D002C823694601A800F02EFA0128D6D155
:102E8000009DD6E782B02DE9F0438BB004460F4693
:102E9000482012A981E80C002AF05CFB80462368D8
:102EA00048F80C3B05AE054611220021304694F847
:102EB00024903AF033FE002302930AAB13E9030097
:102EC00000908DF8041096E80E00404626F00AFFA8
:102ED00005F1280001F022FB85F80890B9F1000FF8
:102EE00019D14FF4B6602AF035FB0646FFF710FC07
:102EF0006E60256225B37968686899B935483AF0FB
:102F000071FE236A2169A268586801B1D2B93248BA
:102F10003AF068FE0AE090202AF01CFB064627F0F3
:102F2000C1F9E5E727F058FE0028EAD0256A2DB15F
:102F30002846FFF7FFFB28462AF034FB00232362D4
:102F4000012042E027F0E6FD0028EFD1169BBA8A67
:102F50003969206AFFF7A0FC06460028E6D14FF445
:102F60004A702AF0F7FA236A0360054600F5CC7030
:102F7000A76901F0D3FA05F5E07001F0CFFAC5F8C2
:102F8000F06105F5FA7305F511725E609E6010330D
:102F90009342FAD1012385F8ED312846C5F8446201
:102FA000C5F848626F60FFF7BDFC0C49E56104237A
:102FB0000B726368CB60139B0B642846149BCB6435
:102FC000FFF7F8FE003018BF01200BB0BDE8F0435A
:102FD00002B070470F7E04103E7E0410E422000809
:102FE0002DE9F04397B00546884641688DF81720D3
:102FF0000CA81F461E9CFFF7FBFB09AA0023536089
:10300000936095F85032CDF824805BB92846FFF7DD
:1030100089FC4FF0FF360CA801F002FA304617B0D9
:10302000BDE8F083D5F8F03101924FF6FF718B4285
:1030300014BF013301230DF117014FF00109C5F849
:10304000F031029105F10800C821CDF800909BB243
:10305000002200F02FFB011ED8DD0CAA2846FFF746
:1030600078FC0646A0BB0CAA09212846FFF75DFEA6
:103070000928CBD116AAC82342F8386D26600193DF
:1030800005F1D0030093494623460DF11E0000F0E0
:1030900057FB4845BFD12368802BBCD0344605EB95
:1030A0000419D9F8F401B0B141463BF08DF990B95B
:1030B0003FB9C9F8F471C9F8F871C9F8FC713E4616
:1030C000A9E71F3405EB0414C4F80480E760A2E705
:1030D000431CA0D19AE70134052CE0D1002F95D0F4
:1030E000002405EB0413D3F8F431002BE9D00134AC
:1030F000052CF6D18AE71FB511461A4603AB00939B
:10310000C069069BFFF76CFF003018BF012005B0B7
:103110005DF804FB30B58BB00D46C469684601F01C
:10312000FDF929466846FFF755FB6846FFF748FB5F
:1031300068B969462046FFF77EFD0028F5DA4FF0B2
:10314000FF34684601F06CF960420BB030BD0024DA
:10315000F7E770B5037A032B044636D0042B14BF6F
:1031600000250A2504F10C0393E8070000F03DFA5E
:10317000E37E023005447BB104F1240393E80700A9
:1031800000F033FA04F13003064693E8070000F03C
:103190002CFA304404300544236C0BB9A36C3BB1CA
:1031A00004F1400393E8070000F01FFA02300544E1
:1031B000E36C0BB9636D33B14C3494E8070000F055
:1031C00014FA02300544284670BD0C25CAE70000F9
:1031D000F7B50646019010460F461446FFF7B9FFB3
:1031E000054600F071F9B8426EDC102101A800F02C
:1031F00095F92946019800F02FF9019B257A18448A
:10320000042D01905AD1324901A800F0A0F92946B5
:1032100001A800F083F9A37E00216FF3070163F397
:103220004101E37E003318BF012363F382014807A5
:1032300041BF94F83D3063F3C40194F83C3063F32C
:103240004511236C0BB9A36C0BB141F08001E36C09
:103250000BB9636D0BB141F04001CDB2294601A815
:1032600000F05CF9218B01A800F05EF904F10C0379
:103270000ECB01A800F07FF9E37E5BB104F12403DB
:103280000ECB01A800F077F904F130030ECB01A8B2
:1032900000F071F92A0605D504F140030ECB01A810
:1032A00000F069F96B0605D54C3494E80E0001A8CE
:1032B00000F061F90198801B03B0F0BD054901A839
:1032C00000F045F90321A3E76FF00100F4E700BF28
:1032D000847E0410897E041073B502AC064644F85F
:1032E000082D20460D4600F013F900F0F0002028CC
:1032F00016D101A9009800F0F9F8009B034400934F
:10330000019B012B0ADD204600F002F900F00100CC
:103310003070204600F0FCF82870012002B070BD2B
:103320000020FBE713B5012904464FF0000301908C
:103330000EDD62F30713194601A800F0EFF8002133
:10334000019800F089F8019B1844001B02B010BDE1
:103350006FF00100FAE70C22FFF7E4BF2DE9F3411B
:10336000002580461F4668460B9B00930E46144678
:10337000019500F0CDF82B4660F3070300F0F00054
:1033800030282BD1C3F3C00288F80020C3F34102D8
:10339000C3F30003326001A92370009800F0A6F87F
:1033A000009C019B044400941C4405462246694647
:1033B000089800F002F988B1009BE31A002B0DDB9E
:1033C0003368002B03DD684600F09AF83880009BD4
:1033D0000A9AE41A1460099A01251360284602B07B
:1033E000BDE8F081F7B502AC064644F8083D20463A
:1033F0000F46154600F08CF8002360F30703C3F373
:10340000C002C3F303133A7001A93370009800F0AF
:103410006DF8009B03440093019B012B04DD2046C3
:1034200000F06EF82880012003B0F0BD094A13684F
:1034300070B51C460025E61AB14206DC0029A8BF7B
:103440005B1805B11360084670BD14F8015B057088
:103450000125F0E78836000830B5441E802500209D
:103460004A4202F07F0201F07F0358BF5342DBB2B1
:1034700091FBF5F10029C8BF43F08003002900F15A
:10348000010004F8013FEBDC30BDF7B5002407462E
:103490000E460C6001250134052C11D001210DF1DF
:1034A0000700B84701280BD19DF80720316802F0CA
:1034B0007F0305FB0313336013064FEAC515EAD4F7
:1034C000204603B0F0BD0000431C7F2B01DC02301E
:1034D0007047B3F5804F01DA03307047024A9342D8
:1034E000D4BF043005307047FEFF1F00024B186048
:1034F0000248FFF7CABF00BF883600082D3400100D
:10350000036819785A780233036002EB0120704790
:103510000368024613F8010B1360704703681970C3
:10352000036801330360704702684FF4807391FBB6
:10353000F3F313700268531C03604B42DBB2C9B251
:1035400058BF59425170036801330360704770B52A
:10355000044608460E463BF013FB0546014620464E
:10356000FFF7E2FF2A46314620683AF0D9F9206891
:103570002844206070BD30B585B004AC04E90E006D
:10358000029C002C05460CDD2146FFF7CDFF2246AC
:10359000039900683AF0C4F92B681C442C6005B00C
:1035A00030BD019921B105B0BDE83040FFF7CFBF74
:1035B00005B0BDE83040FFF7B7BF0B68D31A012B49
:1035C00070B505460C46164603DC002000232B6030
:1035D00070BD0846FFF794FF236868601844864270
:1035E000F3D3AB6020600120F0E784B004AB03E9C3
:1035F0000700019810B104B03BF0C2BA029804B0C1
:10360000704770B504680E468CB120463BF0B8FA9E
:10361000054630463BF0B4FA85420BD12A46314686
:1036200020463BF01BFBB0FA80F0400970BD846877
:103630004568EEE7002070BD13B5032904460194E8
:103640004FF000001CDD62F3071063F3C300931F0B
:103650005A425A4162F34200C1B201A8FFF75EFF2D
:1036600002210198FFF7F8FE019BBDF810101844E5
:10367000019001A8FFF758FF0198001B02B010BD90
:103680006FF00100FAE72DE9F04106460F460225EA
:1036900000244FF00C08B44202DB2846BDE8F0815C
:1036A00008FB047393E80700FFF79FFF033005440E
:1036B0000134F0E72DE9F74F0C9F0D9D01908B46EB
:1036C00006462946384690469946FFF7DCFF824673
:1036D000FFF7FAFE58454FF000042EDC082363F391
:1036E000071468F3C304012363F34204E1B201A8A1
:1036F000FFF714FF51460198FFF7AEFE019B1844F7
:103700000190494601A8FFF70FFF00244FF00C0974
:10371000BC4204DB0198801B03B0BDE8F08F09FBBD
:1037200004530ECB01A8FFF726FF0E9B01A813F848
:103730002410FFF7F3FE0134EAE76FF00100EBE736
:103740002DE9F34702AD98460A9B45F8083D8146AE
:1037500028460F461646FFF7DBFE00F0F0009028E3
:1037600027D101A90098FFF7C1FE009CDDF804A055
:103770000444BAF1010F00940BDD2846FFF7C0FEA8
:103780000023A9F8000054443360009BA34203D3F4
:10379000012002B0BDE8F087D6F80090B9450ADCF8
:1037A00009F1010333602846FFF7B2FE48F829000B
:1037B000EBE70020EDE74FF0FF30EAE710B500221D
:1037C0001346815CA1F13004092C0AD8303B032A4E
:1037D0000B4402F1010218BF1B01042AF1D1184663
:1037E00010BDA1F14104052C01D8373BEFE7A1F151
:1037F0006104052C01D8573BE9E70023EFE70000FF
:103800002DE9F74F8B680A685D1C0746D018D35C1A
:10381000222B8A46154448D14C682E460023B11A03
:10382000A14242D2317822291FD1C3F10103301ABB
:10383000DAF81020184490478346B0B304464FF09E
:103840000C084FF00D09B54218D300232370102344
:10385000FB60DAF80030C7F810B0F61A0136CAF883
:103860000860012003B0BDE8F08F5C2904D1013667
:10387000B11A8C4219D901330136D0E72B785C2B71
:1038800003D0237001350134DDE7721B002A08DD07
:103890006B78662B68D019D82F2B15D00FD8222B18
:1038A00012D0DAF8143058469847002D00F0858081
:1038B000DAF80000281ACAF808000020D2E75C2BCA
:1038C00002D0622BEDD1082323704FE0722B51D030
:1038D00003D86E2BE5D10A23F6E7742B4DD0752B58
:1038E000DFD1052ADDDDA81CFFF768FFA0F55C42EB
:1038F000B2F5806FD5D3A0F55842B2F5806F3FD2B4
:10390000AA1DB21A052ACCDDAA795C2AC9D1EA79A6
:10391000752AC6D1019005F10800FFF74FFFA0F509
:103920005C42B2F5806FBCD2254A019B02EA832338
:10393000C0F3090243EA020000F580300C23B0F521
:10394000803F2DD31F4A9042ABD84FF0F00E042198
:103950004A1ED2B242BB012914BF4EEA000000F059
:103960007F0020700C4403E084F8008001340223BF
:103970001D4468E784F80090F8E74FF00903A3E7D7
:103980007F2808D9B0F5006F4FF00603D7D24FF06B
:10399000C00E0221DCE706234FF0000E0121D7E71D
:1039A0004FF0E00E0321D3E700F03F0C6CF07F0CEA
:1039B00004F802C08009013ACBE7284652E700BF6D
:1039C00000FC0F00FFFF100010B588B1016871B155
:1039D00042688368934206D2CC5C202C00D910BD8B
:1039E00001338360F5E703D1013A826010BD0846D8
:1039F00010BD2DE9F84F0F4618B900242046BDE848
:103A0000F88F0029F9D08468002A3CD1002CF4D02A
:103A1000256AADB3AF42F1D0BA469AF800B039F09A
:103A200095FB5844A846437815F8016B03F003034F
:103A3000012B08BF0BF1200B39F088FB3044D14635
:103A4000437803F00303012B08BF2036B34523D08E
:103A50009AF8006039F07AFB304498F800504378C7
:103A600003F00303012B08BF203639F06FFB284415
:103A7000437803F00303012B08BF2035AE42BDD0CD
:103A80002468C3E72468002CB7D0216A38463AF08E
:103A90009BFC0028F6D1B1E799F800300AF1010A41
:103AA000002BBAD1AAE710B5034628209847044650
:103AB00018B1282200213AF031F8204610BD00004C
:103AC00070B50F4D044604B970BDE3682668D9058A
:103AD00003D4A06808B1FFF7F3FFE368DA0503D465
:103AE000206908B16B689847E3689B0503D4206A96
:103AF00008B16B68984720466B6898473446E2E700
:103B00003C230008000000002DE9F043054693B077
:103B10000C4609B9002024E008680028FAD08B6818
:103B20006268191D91420BD80422874918443BF062
:103B300095F828B90423EB60A3680433A36071E00F
:103B4000A3686268591D91420ED820687F490522FA
:103B500018443BF083F838B9A3680120E8600533C6
:103B6000A36013B0BDE8F083A3686268191D914299
:103B70000DD820687649042218443BF06FF830B91C
:103B80000223EB60A368012068610433E8E7A268C0
:103B900060688242BED221688B5C222B01EB020757
:103BA00004D121462846FFF72BFEDAE72D2B03D060
:103BB000A3F13006092E4BD8002301930029A9D088
:103BC000821A02AEF95C39292ED8302905D22D2966
:103BD00003D02E2901D02B2905D1F15401333F2BDD
:103BE00001D09A42EED112AA134401A90022304614
:103BF00003F8402C3CF0DCFA019FB742804689462E
:103C000088D0C5E906894EA3D3E9002342F010FE0F
:103C100070B16FF000436B610823EB60A368B81BC1
:103C20001844A06001209CE74529D6D06529D3E738
:103C30000022484B4046494642F0F0FD10B14FF09B
:103C40000043E8E74046494642F01CFE6861E3E76E
:103C50005B2B53D1E368B3F57A7FBFF45BAF0133DD
:103C6000E3608B5C5B2B7FF455AF0132A260204692
:103C7000FFF7AAFEA368626893425CD22268D25C16
:103C80005D2A01D1002627E0013B4FF00008A36028
:103C900046462069FFF707FF074640B32EB3C8F832
:103CA0000000C0F80480A3680133A3602046FFF73A
:103CB0008BFE21463846FFF727FFD8B12046FFF795
:103CC00083FEA3686268934214D22268D35C2C2BD3
:103CD000B846DED05D2B0DD1E368013BE3602023C5
:103CE000EB60AE60A368013328E70646DBE7002EF1
:103CF0003FF410AF3046FFF7E3FE0BE77B2B7FF47A
:103D000009AFE368B3F57A7FBFF404AF0133E36032
:103D10008B5C7B2B7FF4FEAE0132A2602046FFF766
:103D200053FEA3686268934205D22268D25C7D2A62
:103D300012D1002755E0013BA360EBE6AFF3008012
:103D40000000C0FFFFFFDF41928E0410978E041029
:103D50009D8E04100000E0C14FF00008013BA360FD
:103D60004746C1462069FFF79EFE0646002841D01F
:103D7000002F3DD0C8F80000C0F80480A3680133CC
:103D8000A3602046FFF720FE21463046FFF738FDAE
:103D9000002832D02046FFF717FE3369336262688D
:103DA000A368C6F81090934227D22268D25C3A2AC0
:103DB00023D10133A3602046FFF706FE214630469B
:103DC000FFF7A2FEC8B12046FFF7FEFDA3686268B8
:103DD000934212D22268D35C2C2BB046C2D07D2BEA
:103DE0000BD1E368013BE3604023EB60AF6079E710
:103DF0000746C3E7002F3FF48DAE38467BE700BF90
:103E00002DE9F043354F89B0002406468846914697
:103E100000211C2201A839F081FE3C607C60002E4C
:103E200052D0304601963AF0ABFE2D4B0394013050
:103E3000029093E8070008AB03E90700FFF733FEA1
:103E40000546002832D0019828B1039BF3B9029BA4
:103E5000042B11D801A8FFF7B7FD01462846FFF74C
:103E600053FE00B3B9F1000F12D1B8F1000F2DD1FC
:103E7000284609B0BDE8F08303221A493AF0EEFE65
:103E80000028E7D1039B03330393E3E72046E2E7EF
:103E900001A8FFF799FD039B029A934203D2019A6E
:103EA000D35C002BE1D02846FFF70AFE039B029A61
:103EB000934201D382B1531EB8F1000F02D0F21821
:103EC000C8F800203E607B600025D1E7039A019B83
:103ED0001344C8F80030CBE71346EDE78C360008F2
:103EE0003C2300088E8E041000221146FFF788BF85
:103EF0000022FFF77EBD0368184708B10B68036016
:103F000070477047F7B51F460E4B04460D4640F804
:103F1000043B16460021102239F000FE002104F176
:103F2000400029F0FBFD04F1540029F093FD089BAB
:103F3000009320463B46324629462CF041F8204665
:103F400003B0F0BD50360510C36810B504460BB180
:103F50009B689847204610BD7FB562B6324C334807
:103F600039F040FE1022002C4ED1214602A839F033
:103F7000D5FD02A92E482F4C2CF09CF802A8FFF783
:103F8000E3FF2D4839F02EFE1022002C44D12146AB
:103F900002A839F0C3FD02A928482CF08BF802A82A
:103FA000FFF7D2FF64202BF09FFF642030F040FE2B
:103FB0000024234681B2FF222046009430F0FEFD0B
:103FC0004FF4FA702BF090FF204630F020FE642072
:103FD0002BF08AFF642030F02BFEFF23224681B2B3
:103FE00000930120234630F0E9FD4FF4FA702BF0E6
:103FF0007BFF012030F00BFE114C8025E5604FF473
:10400000FA702BF071FFF9E7002102A839F086FD64
:104010000C4B02940593ACE7002102A839F07EFD19
:10402000084B02940593B6E7414C0310D08E041060
:10403000543700087D240010E98E041094360008DF
:1040400080063140B48E041073B5114C114E124DE0
:10405000124B00934FF48052002318212046FFF7A3
:1040600051FF3246294620460D4C29F0EDF80D4B04
:1040700000934FF48052002318212046FFF742FF9F
:1040800032462946204602B0BDE8704029F0DCB82F
:1040900094360008E022000865000310C08E04106A
:1040A00054370008CC8E04104FF0100300F00CB809
:1040B0004FF0200300F008B84FF0300300F004B8D0
:1040C0004FF0400300F000B8EFF308804FF0040118
:1040D00072460A4201D0EFF309809C46244B1968CE
:1040E00002680A60043142680A60043182680A602A
:1040F0000431C2680A600431F0C147460F600431E0
:104100004F460F60043157460F6004315F460F6021
:10411000043102690A60083142690A600431826927
:104120000A600431C2690A600431034620334FF447
:104130000076324200D0043375464FF01006354207
:1041400000D148330C46103C2360EFF309820A602B
:104150000431EFF308820A60043172460A600431C8
:10416000EFF314820A606046014900F079F8FEE737
:10417000048F0410F0B52C4C2C4F85B0002526463A
:1041800054F8252029463846013528F051FD0D2DDB
:10419000F6D1A36C0293636C0193236C009304F13A
:1041A0003401234C23480EC928F042FD21682248DF
:1041B00028F03EFDE16AA26AA36AA06A256BE76B5C
:1041C0000297000C01950090C3F30723D2B21B485D
:1041D00028F02EFDA36A1D0603D5616B184828F050
:1041E00027FDA36A180403D5A16B164828F020FD0B
:1041F000F36C190712D5144828F01AFD336DDA074D
:104200000FD5124828F014FDF36C5B074CBF104823
:10421000104805B0BDE8F04028F00ABD0E4828F06F
:1042200007FD0E48EEE700BFFC6D0008988F0410F4
:1042300000ED00E0A68F0410F58F04100390041029
:1042400052900410609004106E9004107D90041041
:10425000AD900410B99004109D9004108A90041041
:1042600013B50446154828F0E3FC302C17D0402C39
:104270001AD0202C1DD11248124C28F0D9FC12481B
:1042800028F0D6FCFFF776FF104828F0D1FC002379
:104290000F4A0093D26B0F49204628F047FE0E4884
:1042A0000E4C28F0C5FCEAE70D480E4C28F0C0FC87
:1042B000E5E70D480D4C28F0BBFCE0E7088F041043
:1042C000318F04103E01FF805E8F0410698F04104F
:1042D000FC6D0008888F0410408F04103F01FF80A0
:1042E000498F04104001FF80548F04103D01FF806E
:1042F00038B5CB6804460D460BB15B689847EB6850
:10430000E360204638BD884238B504460D4606D0E5
:10431000FFF71AFE1CB129462046FFF7E9FF2046A9
:1043200038BD0000C36810B52BB940F23A220449E9
:10433000044828F0EDFB1B68BDE81040184700BF9B
:10434000C5900410E39004100020704700207047CF
:1043500000207047002070470020704770470368B6
:1043600053F8503C18447047C36810B504460BB16D
:104370009B689847204610BDC36810B52BB940F222
:104380001B720449044828F0C3FB1B68BDE81040B9
:10439000184700BFC5900410E390041070B50446A0
:1043A000054654F8083B8BB90D4E306818B14FF0F4
:1043B000FF312AF069FE2B6823B914B1204629F099
:1043C00049FB2C60306808B12AF076FE2B68A342C6
:1043D00004D068220349044828F09AFB204670BDA7
:1043E000E88E0008E89004100A910410C36810B524
:1043F00004460BB19B689847204610BD03681B69B3
:10440000184703689B69184703689B6A1847002987
:104410000CBF6FF0180000207047012070477047F4
:1044200010B5044628F01EFC23681BB1237F0BB196
:1044300029F0D2F90023236028F02AFC204610BD81
:1044400010B5044628F00EFC236853B9237F0BB146
:1044500029F0A0F9A06928F09BFAC4E90201012320
:104460002360BDE8104028F013BC38B5044628F09E
:10447000F9FB236863B1A06928F08AFAD4E9024500
:10448000041B61EB050528F003FC2046294638BDD6
:1044900000240025F7E710B5044628F0E3FB20468A
:1044A000FFF7E3FFD4E90423801859412368C4E9E6
:1044B00004011BB1237F0BB129F08EF90023236087
:1044C000BDE8104028F0E4BB70B5064628F0CAFBF2
:1044D0003046D6E90445FFF7C8FF24184D4128F0BF
:1044E000D7FB2046294670BD08B5FFF7EDFF4FF416
:1044F0007A72002342F00EFA08BD10B5044628F087
:10450000B1FBA06928F044FA00220023C4E90201AB
:10451000C4E90423BDE8104028F0BABB002310B55D
:10452000002203600023C0E90223C0E904230446FB
:1045300028F044FA0123A06123772046FFF7DDFF2E
:10454000204610BD036801221B690021184703683B
:1045500000221B691146184770B5164604460D46E1
:10456000102200214C3039F0D9FA2EB929462046C4
:1045700000F09BF8204670BD32462946204600F0E8
:1045800067F8F7E700F0A6B900F062BA00F04FB99B
:1045900010B5044600F09BF804F14C00FFF726FF2D
:1045A000204610BD2DE9F04103690E799E40C36895
:1045B000CB1A1E434B699B1A002BACBFD318131C9C
:1045C0004B61437A4B7100F14408054640460C4666
:1045D000174600F042FA28460368002B30D059698C
:1045E0006269A1EB020EBEF1000F26DB914227D1DA
:1045F0009B68A36013B104F108021A6122460368A4
:1046000042F80C3F002199601A61AB6A0460206196
:104610006BB195F8242052B12A68944207D1E26820
:104620002AB96169E86AC91B21EAE17198474046E5
:1046300000F015FA3046BDE8F08103F10800CBE741
:10464000A36013B104F108021A610023E360DCE700
:1046500038B500230446C260436103610D46FDB9CD
:10466000E1612262A561256000F0F2F96572606087
:10467000257284F82450A562E56204F1300000F050
:10468000F0F900280BDB04F1440000F0E3F9002806
:1046900005DB04F1480000F0DDF900EAE07038BD08
:1046A0002369013323616D08D9E770B505460846D3
:1046B0000E4638F0D9FD044630B102463146284650
:1046C000FFF7C6FF6C6170BD4FF0FF3070BD70B575
:1046D00005680446B5B9A36A1BB14FF0FF31E06A23
:1046E000984704F1480000F0B7F904F1440000F0E5
:1046F000B3F904F1300000F0C9F96069BDE8704019
:1047000038F0BABDEE6836B9EB6913B105F1240093
:104710009847AD68DEE7F36913B106F124009847C6
:10472000F668F0E7F8B5064600F148072731384645
:1047300021F0030500F091F9B46906F1180384B97A
:10474000F3699D4227D8346A5B1BF3616219012328
:10475000326238462560237100F081F964B9204641
:10476000F8BD2268954212D8E2686AB11A60A3685F
:104770009360384600F073F900234FF0FF32636115
:10478000A261E3612434EAE7A2681A60F1E704F168
:104790000803A468D3E7384600F061F9DFE7F8B50D
:1047A00051F8083C05460C46A1F124070BB1084618
:1047B000984705F14806304600F04FF9AB6905F11E
:1047C0001802ABB1186854F8241C88420CD30FD1DE
:1047D00044F8183C13689B6844F81C3C304617604A
:1047E000BDE8F84000F03BB903F108029B68E8E738
:1047F000002344F8183C1368EEE770B514460546EC
:104800000E4600F025F954F8103C44F8046C0344BB
:10481000024644F8103CA4F124012846FFF7C2FEEA
:10482000044605F1300000F034F9204670BDF8B5BB
:1048300005460E4600294CD0036901249C40013CEA
:1048400004EA0103C46800F144071C44384600F040
:1048500004F9296923790E41B34204D03846BDE8F2
:10486000F84000F0FCB8002323624FF0FF33A3614F
:104870006A6863699B1A002BF0DB03D162796B7A5B
:104880009A42EBD1E268A368E2B1936013B102F1FE
:104890000801196123691A60E268136123792A69A2
:1048A0000133DBB213FA02F208BF01232371384649
:1048B00000F0D5F86CB104F124012846BDE8F840B9
:1048C000FFF76DBF22691360A368002BE6D01A6161
:1048D000E4E7F8BD2DE9F3470446884600F0B8F850
:1048E0000027054608EB000984F8247004F144060B
:1048F000304600F0B2F8637A0133637263685B1B81
:10490000002B2368D8BF6560019301A91BB15A69C8
:10491000521B002A31DD236003B11C610F60304659
:1049200000F09DF8019B01A95BBB019D002D37D1D3
:1049300000F08EF8B8F1000F824656DBA9EB0005B7
:10494000002D54DCA36A9BB1304600F086F8A36AC0
:1049500043B1226832B15169E06AA1EB0A0121EA50
:10496000E1719847012384F82430304600F077F84D
:104970000023237202B0BDE8F08703F108019B68B1
:10498000C4E7D3F808E01A460025D06895601546BC
:1049900020B90A6003F108017346C5E70246F4E74F
:1049A0002B6AD5F808A013B105F124009847AA692D
:1049B000002A0BDB6B6913446B6100F049F8294650
:1049C00002462046FFF7EEFD5546AFE72B792269F8
:1049D0000133DBB213FA02F208BF01232B7105F198
:1049E00024012046FFF7DBFEEEE74FF0FF353046AF
:1049F00000F033F823683BB15969A1EB0A0121EAC1
:104A0000E1718D4228BF0D46304600F028F8294656
:104A100004F1300000F041F8237A7BB1304600F019
:104A20001CF8237A3BB100233046237202B0BDE864
:104A3000F04700F014B8304600F011F800F008F824
:104A4000054655E740F8101C704740F8081C7047B1
:104A500029F0ECBD00207047704728F003B928F01A
:104A600017B91FB5044610220021684639F056F8E0
:104A7000231D029368461023039329F08FFB2060C7
:104A8000B0FA80F04009404204B010BD006829F03F
:104A90000BBC0121006829F099BB08B5002241EA4E
:104AA000E1730068012129F0D5FB431E58425841AB
:104AB00008BD30B54FF47A7440F271256143B1FB03
:104AC000F5F189B2032983809DF80C30837198BF7A
:104AD0000423018098BF03800388B3F5804F88BF0B
:104AE0004FF4804304FB02F2B2FBF5F292B288BFAE
:104AF0000380032A98BF0423428098BF43804388E1
:104B0000B3F5804F84BF4FF48043438030BD000035
:104B100007B500234FF48042009311460248FFF787
:104B2000C8FF03B05DF804FB1438000803460022F8
:104B300010B503F8012B00F1110403F8012BA34277
:104B4000FBD1418210BD03680BB10846184770477E
:104B5000044B00221A605A609A601A61024ADA60B5
:104B6000704700BF1C380008474B001008B542F6DC
:104B700002110248FFF7DAFF08BD00BF3038000815
:104B800000207047000000002DE9F74F82468B4659
:104B900046A1D1E9000110EB0A0041EB0B01820FA5
:104BA0003F4D404CDFF80CC1DFF80CE142EA8102D6
:104BB00042408B0F4B4005FB02F104FB0311A2FBAB
:104BC00004230B44D00ED90E594040EA4310364B13
:104BD000504043430CFB0133A0FB0C011944DEE9B8
:104BE0000023C60F80EA020881EA030946EA41066B
:104BF000CF0F29A1D1E9000142464B4610EB0A0034
:104C000082EA060283EA070341EB0B01CEE90023A7
:104C1000820F42EA810250408B0FCDE90089594052
:104C200005FB00F904FB0193A0FB048999444FEABA
:104C3000D86444EA49141C4B88EA04084FEAD96551
:104C400089EA050903FB08F30CFB0933A8FB0C896F
:104C50009944DEE902234FEAD8744FEAD97544EA51
:104C6000490489EA050988EA04084B4582EA0800F4
:104C700083EA090108BF4245CEE9020109D1DDE915
:104C80000034A74208BF9E4203D101220023CEE98F
:104C9000002303B0BDE8F08F2AF894FE72F36E3C57
:104CA0006D4758BFB9E5E41CBB49D094157C4A7FD9
:104CB000B979379EEB11311348380008F8B524F064
:104CC00018FB24F017FB054624F014FB0026144CB7
:104CD0002B46324642EA000210461946D4E9002328
:104CE00059405040C4E9000124F004FB054624F07B
:104CF00001FB2B46324642EA000210461946D4E92F
:104D0000022350405940D4E90023994208BF904201
:104D1000C4E9020103D1BDE8F840FFF735BFF8BD93
:104D2000483800082DE9F043DFF850E0DEE90001E3
:104D3000DEE90289460A81EA090346EAC1544E0ABD
:104D400080EA080246EAC0559F0347EA9247960365
:104D500054405D4074407D40CEE90045140F44EA64
:104D600003141B0F43EA021210EB0800CEF80840B0
:104D7000CEF80C2041EB0901BDE8F083483800086B
:104D800008B5FFF7CFFF084608BDF0B500248646FA
:104D90000A2720464FF02E0C0B181EF804201D4643
:104DA000B2FBF7F02E4607FB1022303206F8012B3B
:104DB00010F0FF0213D132701A46954211D81A46EC
:104DC000581A15780133002DF9D1032C04F1010490
:104DD0001CBF013082F800C0042CDDD1F0BD354687
:104DE000DEE72878167805F8016902F8010BE4E798
:104DF0001029F0B501D90020F0BD561E0024033261
:104E00000A278C42F7D0035D303B092BF3D80025ED
:104E100023468B420BD306F8015F964215D18B4295
:104E20001DBFC05CB0FA80F040090120F0BDC45C39
:104E3000303C5FFA84FEBEF1090FECD807FB054554
:104E4000FF2D03F10103E4D9D5E78B42D3D05C1CDD
:104E5000C35C2E2BD5D0CEE72DE9F74F034689460C
:104E6000002201274FF0FF081C465B7814F8021B54
:104E700053EA012332D1511C2346072925D98C1A24
:104E8000BC4201D9274690464A1C072AECD91E4B42
:104E90004FEA470B05464C4600264FF03A0AB0450C
:104EA0001FD1B8F1000F02D184F800A0013484F8BA
:104EB00000A05D443E440134072EF0D90023A4EB4A
:104EC0000900237003B0BDE8F08F13F8025B13F8FC
:104ED000014C54EA0524D2D10131CEE711462346D4
:104EE000D2E729786A78019342EA012220461946DE
:104EF00039F07AF90136082E0444DFD084F800A096
:104F000002350134019BD7E74F09051027292DE908
:104F1000F0410746104672D802F1020E4FF0FF34FE
:104F2000002200294CD1631C67D0C2F10802550051
:104F300064000619C4F110022C44521B314620446F
:104F400038F088FD2A460021304638F0E7FD012080
:104F5000BDE8F08123F0200CACF1410CBCF1050F51
:104F60002E4602D9303B092B49D801392CD131E0EA
:104F7000A3F1410CBCF1050F03D8373B43EA0513FD
:104F800039E0A3F1610CBCF1050F01D8573BF5E7FF
:104F90002B0A0EF8023C0EF8015C013251B1337855
:104FA0003A2B0BD173783A2B08D1013427D1013633
:104FB00002391446771C0EF1020EB2E70139F9E707
:104FC0003B78002BAFD03D462E4615F8013B0BB188
:104FD0003A2BBFD1F31B042B11DC082A0FD000257C
:104FE00017F8013BA3F1300C5FFA8CF8B8F1090F08
:104FF000BED84CEA05139DB2F2E7082AA7D01022CA
:10500000002138F08BFD0020BDE8F081C36810B5A9
:1050100004460BB19B689847204610BDB0F9460086
:105020007047000010B586B00C46114690F89C20E1
:1050300090F89730049290F89B20039290F89A2071
:10504000029290F89920019290F8982000922046C0
:10505000024A39F07DF8204606B010BD1E910410BA
:1050600038B50C4600F15C010120154609F060FBE3
:1050700028B12A462146BDE8384005F037BA38BD88
:105080000346643003D05B6E0BB105F02FBA0020ED
:1050900070470346683003D09B6E0BB105F026BA0B
:1050A0000020704710B5064B044640F8DC3B28F062
:1050B00007FD04F1BC0028F050FD204610BD00BFE4
:1050C0004491041010B50446FFF7ECFF204628F089
:1050D00069FA204610BD0000054B1B6833B103F18F
:1050E0005C02904202D0D3F8A830F7E71846704728
:1050F0005838000813B50446002005F009FD08B132
:10510000036893B9012005F003FD08B1036863B992
:105110002146002009F00CFB38B102A94FF00833FA
:1051200041F8043D002005F0E3FC02B010BD000092
:105130007FB5254B036002230025A0F846300123EC
:10514000044680F84A30456080F8445080F8485062
:1051500080F8495080F84B50294610224C3038F0E6
:10516000DDFC29464C2204F15C0038F0D7FC102607
:1051700004F108036A4629464FF6FF700293009532
:10518000019503962AF0E2F804F11C03A0616A4637
:1051900029464FF6FF70029303962AF0D7F804F1E0
:1051A0003003E0626A4629464FF6FF700293039689
:1051B0002AF0CCF8054B20641A68C4F8A8202046D1
:1051C0001C6004B070BD00BFB891041058380008CE
:1051D0002DE9F04F804685B00D46B0202E4993460C
:1051E0009A4628F0DBF90446002851D0FFF7A0FFCB
:1051F0004FF0000908F1D4036560C4F8AC3004F145
:10520000970084F84B9027F0A9FE062384F8963087
:10521000224B029304F15C05214B019300944B4611
:105220004A464946284605F0FDFE98B3BBF1000FFB
:1052300004D0284605F036FFC8F8D0402846194962
:1052400005F08FFF2846184905F060FFCAF80040B6
:1052500094F89700002101230625B3FBF5F205FB26
:10526000123254FA82F20F02013347EA1067060243
:10527000DBB292F897000021082B40EA060041EAD1
:105280000701EAD101F086FA002005B0BDE8F08FF1
:105290000648FAE70648F8E7905D0B10CD8200104B
:1052A0000157001051530010BF53001041F4FFFF8D
:1052B0003CF4FFFF10B5044B044640F84C3BFFF7AD
:1052C00053F8204610BD00BFB891041010B5044635
:1052D000FFF7F0FF204628F065F9204610BD70B5B5
:1052E00000F14C058D4206460C460BD02846FFF7D0
:1052F0003BF83DB1E3681BB15B68214628469847FF
:10530000E368B36570BD000070B5044600F15C064B
:10531000304605F0CDFE94F84900002580B13046B6
:1053200003F095FE84F8495058B1A36D0222A4F809
:10533000462023B1294604F14C00FFF71DF803482D
:1053400070BD012384F8483070BD00BF3EF4FFFFFC
:1053500038B5FFF7C1FE90F89D30B0F946505A07B6
:10536000044621D5032D1FD1FFF7CEFF94F84A3014
:105370009BB1A0B9A0692AF029F8A36D63B1B4F973
:105380004620954208D0531E9BB2012B04D9002120
:1053900004F14C00FEF7F0FF38BD0028EDD004F119
:1053A0005C0005F09EFEE8E7E06A2AF00FF894F84A
:1053B0009D30DB0744BF0323A4F84630EFE738B540
:1053C0000146FFF789FE90F89D30B0F9465003F092
:1053D0000503052B044617D190F84430DA0707D4AB
:1053E000012009F0A5F998B994F84430DB0702D5FB
:1053F0000123A4F84630A36D23B3B4F946209542A7
:1054000020D0022A19D138BD042BF4D10223F0E7B1
:1054100094F84A3013B1206C29F0D8FF94F8443046
:1054200043F0010384F8443094F84A30002BDBD178
:1054300004F15C00FFF75EFED6E7002104F14C00AA
:10544000FEF79AFF38BD00007FB5B0F94650012D38
:1054500004461E465BD0032D5BD00323A0F84630E4
:105460009DF8283080F84A309DF82430022B04D073
:10547000002952D0012380F84930A36D2BB10322BB
:10548000002104F14C00FEF777FF94F84B307BB11C
:10549000A36D0222A4F8462023B1002104F14C00A0
:1054A000FEF76AFF6FF00B0009F010F904B070BD51
:1054B00094F89D305B071BD494F84A307BB994F87C
:1054C0004A000028F2D004F15C052946012009F0C9
:1054D0002FF998B12846FFF70DFE0020E6E743F6C6
:1054E0009821A06929F04AFF0028E8D01A48DDE792
:1054F0002046FFF709FF0028E1D0D7E74EF66021EC
:10550000206C29F03BFF0028E4D01448CEE7144873
:10551000CCE71448CAE71448C8E790F84B30002B92
:10552000ABD101A9104604F054FF0028F3D002A922
:10553000304604F04EFF0028EDD003A9089804F08F
:1055400048FF0028E7D003AB02AA01A904F15C00E0
:1055500005F04CFD91E700BF44F4FFFF3EF4FFFF70
:1055600039F4FFFF3AF4FFFF45F4FFFF30B5B0F91F
:105570004630022B85B004463ED090F8483063B1E7
:1055800000F15C05284603F0A1FD284603F050FD1C
:10559000002384F8483084F8493094F84B502DB1FA
:1055A0006FF00B0009F092F805B030BD04F15C001B
:1055B00005F097FD25666566A566206C29F04AFF13
:1055C00004F1300302936A46102329464FF6FF7018
:1055D00003930095019529F0B9FEA36D2064022282
:1055E00084F84450A4F8462023B1294604F14C0025
:1055F000FEF7C2FE0020D7E70048D5E744F4FFFFDE
:10560000034610B107C983E8070070477047034697
:1056100010B107C983E807007047704710B44268AB
:105620008468036812F0010F4FEA62021CBFA058A1
:10563000C358A0185DF8044B184710B4426884683A
:10564000036812F0010F4FEA62021CBFA058C35852
:10565000A0185DF8044B184738B5054608460C46B7
:1056600005F00CFF6B6A5868036821469B699847F0
:1056700000280CBF6FF00B00002038BD10B50C46A1
:10568000C36E00F15C012046984720B12046BDE87A
:10569000104005F008BE10BD37B5144602B3012A0C
:1056A00003D06FF00F0003B030BD456A086805F005
:1056B0001CFA5E23C0F316008DF80230030C8DF83F
:1056C00000408DF803300024030A8DF801408DF866
:1056D00004308DF80500686803686946DB6A9847FE
:1056E0002046E0E75C30012219B10146024802F091
:1056F000FBBD01460148FAE713B100104BB10010A1
:10570000F0B5446A05466068D4F8AC10036885B00B
:105710009B6B9847666833681022002168465F6A71
:1057200038F0FCF92F4B0093002301932E4B039389
:10573000029469463046B847039B13B19B6868469C
:105740009847666833681022002168469F6A38F0DF
:10575000E5F9264B009300230193254B0393029414
:1057600069463046B847039B13B19B686846984723
:105770001A2385F8413060680368DB699847002880
:10578000606803681B6814BF00276FF00B07984719
:10579000288760680368DB68984785F83A00606886
:1057A000036805F13B0631461B699847606803684A
:1057B00031465B6998476068036802229B6805F17F
:1057C000420198470B4B6B610B4BAB6495F8413032
:1057D00043F0200385F84130084BAB61384605B0F3
:1057E000F0BD00BF7D560010EC910410E55600108E
:1057F000E091041055980010995600105956001069
:10580000C1F5147070470889704709B1086870477E
:10581000084670474868704748897047084605F051
:1058200042BD0846114605F04CBE084611469AB2E4
:1058300005F0C5BE08B5184692B2002305F090FEEB
:1058400008BD0846114605F026BEF8B503680E46A9
:10585000074611469B68154698473B68B6FBF0F42F
:1058600029469B6838469847B6FBF0F101FB10606B
:1058700000B1013405FB04F0F8BD0B6810B523B985
:105880004B890B8110BD0A81014641B108684A89E4
:105890000346002BF7D05C891B682244F9E710BD52
:1058A0004A81FFF7EABF30B4AAB10B4683B15D6805
:1058B000B5FBF2F402FB14542CB1141BA24294BFAA
:1058C000AC182C195C605C89A41A5C811B68EDE73C
:1058D00030BCFFF7D2BF30BC7047114470B589B2FD
:1058E000064615460420002205F00DFD044620B1B1
:1058F00001462A463046FFF7D6FF204670BD70B5F8
:105900000C4616460546FFF7A0FF2118032289B270
:10591000042005F0F8FC044620B101463246284632
:10592000FFF7C1FF204670BD034610B107C983E8E9
:1059300007007047704708B5BC3028F00BF9BDE888
:10594000084000F0B7BE10B50C78012C034605D115
:105950000422013137F0E4FF012010BD44B1022CD4
:1059600009D101F1100211F8010F20B98A42FAD1D0
:1059700000221A60F0E7002010BD00007FB5064647
:10598000164B46F8BC3B04460021304628F0C6F8CA
:10599000134BC4F8D43004F1DC00002528F05AF889
:1059A000C4F8D05000F0F4FE00F0F6FE4DF82500EB
:1059B0000135042DF8D16946002001F0E3FA2146B3
:1059C000084802F0C1FC0021304628F0AFF820461C
:1059D00008F0B1FE204604B070BD00BF4491041031
:1059E0000092041037590010F0B5002489B00E461B
:1059F00017462546E0B205F08BF8E0B10368D3B155
:105A0000AE4217D108AC0123014604220DF10D006E
:105A100004F8143D37F084FF08AB13E9030000904D
:105A20008DF80410384694E80E0024F0C2F90020E6
:105A300009B0F0BD01350134022CDBD10048F7E795
:105A400042F4FFFF38B510220D460021044638F01D
:105A500065F86422012384E80C00024BA560E36032
:105A6000204638BD34920410D0F8D01010B504464A
:105A700059B15C31012008F05BFE30B104F19401B2
:105A80002822BDE8104004F031BD002010BD000008
:105A9000F8B506460D46174608F052FE044670B1AA
:105AA000002F0B4A4FF000010CBF1020202001F006
:105AB00067FB606028B92146304608F066FE05485D
:105AC000F8BD0123C0F8C0302C600020F8BD00BF35
:105AD0005560001043F4FFFF70B50C460646886819
:105AE00002F064FB606801F06FFB2146054630461A
:105AF00008F04BFE2846BDE8704008F0E7BD000006
:105B000030B514464A68137803F0F003102B87B0C1
:105B10000D4605D15368DB8A3BB1124807B030BD52
:105B2000202B02D153685B8AF6E7214601A824F0B6
:105B300072F901A96846FFF706FF0028EDD0009B27
:105B400023B1684608F0E0FD0028E6D020466D68E5
:105B500024F074F969460246284601F063FB08F018
:105B6000B5FDDBE745F4FFFF08B548684368DB8A0D
:105B700033B1D1B201F086FBBDE8084008F0A6BD04
:105B8000004808BD45F4FFFF70B586B001A80D467A
:105B90001146164624F03FF901A96846FFF7D3FEE7
:105BA000C8B16C6894F8C43023F0020384F8C430A0
:105BB000304624F043F969460246204601F04AFB8C
:105BC0006A6892F8C43043F0020382F8C43008F0E7
:105BD0007DFD06B070BD0148FBE700BF45F4FFFF47
:105BE0002DE9F0438BB081460D4690461E4608F0E5
:105BF000A7FD0446002841D0686843681F7D012F37
:105C00003ED1211D01F04EFB054648B148462146D4
:105C100008F0BBFD284608F059FD0BB0BDE8F08345
:105C200060682B46C0F8C0700DF10E0204A9C8F8D8
:105C300000400AAD01F0E0FA042204A90DF11500BC
:105C400005F8147D37F06CFE7EB10AAB13E9030052
:105C500000908DF8041095E80E00304624F0A9F865
:105C6000BDF80E10304624F0B9F8626892F8C430DE
:105C700043F0020382F8C4300020CEE70148CCE7AD
:105C80000148CAE743F4FFFF45F4FFFF1FB508468C
:105C900011461A4604AB002443F8044D00934068B3
:105CA000012301F08DFB18B108F010FD04B010BD08
:105CB0000398FBE7F8B58D680C4616461F464DB9AC
:105CC0000831606801F030FBA58118B1BDE8F840EB
:105CD00008F0FCBCA068A3890068BAB2314605F0A0
:105CE0003FFCA38905460344A068026812899BB261
:105CF0009342A38103DB02F059FA0023A3602846F4
:105D0000F8BD0000F0B587B001A80F461146154652
:105D10001E4624F080F801A96846FFF714FE20B360
:105D200002F038FA3146BDF83020044602F05AFA43
:105D3000064638B1204602F04AFA304608F0C6FC62
:105D400007B0F0BD28467E6824F078F86A4603461E
:105D50002146304601F02AFB0546204602F026FA8D
:105D60000DB12846EAE70C98EAE70148E8E700BFEA
:105D700045F4FFFF70B5084688B002A94068154693
:105D80001E4601F0D1FA18B108F0A0FC08B070BDB1
:105D9000D5B1029908AC0123042208310DF10D00A0
:105DA00004F8143D37F0BCFD08AB13E90300009084
:105DB0008DF8041094E80E00284623F0FAFF029BA9
:105DC0002846998924F00AF80298BDF83020006826
:105DD0000023314605F0C4FB0446029802F0E6F9C0
:105DE0002046D3E72DE9F047002405460F46264616
:105DF0004FF001084FF02209EB699E421AD22B6A3C
:105E000008FA04F21A4201D10134F9E7A86909FB42
:105E100004FA11223946504437F052FD70B9A8698E
:105E200011225044B918104437F04AFD30B92046C9
:105E3000BDE8F0874FF0FF30BDE8F0870136013450
:105E4000DAE700002DE9F7431F4606460C460A9D97
:105E50000B9B082F00F2C980DFE807F036051827F2
:105E6000C7C7C7474700042B40F0BF804A68137874
:105E700003F0F003102B40F0B8805268137A43F01F
:105E800008031372002003B0BDE8F083042B40F038
:105E9000AC804A68137803F0F003102B40F0A58023
:105EA00053682A68C3F88C20ECE7042B40F09D80EF
:105EB0004A68137803F0F003102B40F09680536883
:105EC0002A68C3F89020DDE7042B40F08E804B68F1
:105ED00028685A68137A20B143F0040313723846D5
:105EE000D1E723F004031372CDE7222B01D0404801
:105EF000C9E76B7C13B12A789A42F8D1294601A8E8
:105F0000FFF721FD0028F2D06B7C0BB305F11101E6
:105F10006846FFF718FD0028E9D029462046FFF71C
:105F200061FF072F804642D1A3699BB9882037F0D3
:105F30009BF9A06188B1B8F1FF3F52D1236A0027D5
:105F4000012202FA07F913EA090F08D00137F8E72E
:105F50000093E2E7E369042BEDD1264893E7DC36B2
:105F6000304627F07FFD01A9684603F031FF8046E7
:105F7000304627F08FFDB8F1000F14D1236A43EAB1
:105F800009032362A369222202FB073705F12003DC
:105F900055F8042B47F8042B9D42F9D12B883B8000
:105FA000E3690133E361404608F090FB6BE7B0F131
:105FB000FF3F18D0012303FA00F0236A23EA00030D
:105FC0002362E369DC36013BE361304627F04AFD9A
:105FD00001A9684603F062FF8046304627F05AFD6B
:105FE000E1E705484FE705484DE705484BE700BFA7
:105FF00045F4FFFF41F4FFFF36F4FFFF42F4FFFFDB
:1060000046F4FFFF0048704746F4FFFF0A614B610A
:106010007047000010B50B4C2378BFF35B8FDB0794
:106020000ED4204627F01CF950B10748FFF7A6FC14
:10603000204627F037F9054A0549034827F004F9B7
:10604000014810BD5C38000860380008E0220008F4
:10605000A55000100329F8B5064602D14378012B5C
:106060001AD0FFF7D7FF00F1DC050446284627F0D9
:10607000F9FC04F19007237933B1A3689E4203D160
:1060800063690BB1A06998472434BC42F3D1284618
:10609000BDE8F84027F0FEBCF8BD08B5FFF7BAFF31
:1060A00008BD000038B50446006830B122460E49EC
:1060B00007F060FF0023236038BD2369251D2BB93D
:1060C00040F23A2209490A4826F022FD1B68284678
:1060D00098473CB12846FDF737FF2046BDE83840D9
:1060E00027F060BA38BD00BFA5600010C59004104D
:1060F000E3900410F8B514200F461049164627F017
:106100004DFA044608B90E48F8BD051D10220021BD
:10611000284637F003FDAE42276006D02846FDF73B
:1061200013FF31462846FEF7E3F8012221460548D1
:1061300002F0DAF80028E6D1F8BD00BF905D0B1040
:1061400041F4FFFFA560001070B5044688B00E460C
:1061500068461146FEF7CCF86368A568246813F01A
:10616000010F4FEA6303694618BFEA5804A81D44AB
:1061700018BF1459FEF7BCF804AA31462846A047B8
:10618000044604A8FDF7E0FE6846FDF7DDFE204664
:1061900008B070BD10B5002210F0010304D0A1B307
:1061A00010F8012B1202013910F0030405D0022966
:1061B0001ADB30F8024B1219023908290BDB50F8B0
:1061C000044B121942F1000250F8044B121942F12B
:1061D00000020839F1E7022906DB30F8024B1219F8
:1061E00042F100020239F6E719B10478121942F1BE
:1061F0000002C2F30F44C2F30F021219C2F30F449C
:10620000C2F30F02121903B152BA104610BD13099E
:1062100011D051F804CB40F804CB51F804CB40F82E
:1062200004CB51F804CB40F804CB51F804CB40F830
:1062300004CB013BEDD112F00F0305D011F801CBD7
:1062400000F801CB013BF9D170470000082913B5D4
:106250000A46044605DD00230F491048009326F046
:1062600065FE4822002137F059FC04F11403E36075
:1062700010232361201D27F091FF0346206020B9E1
:106280000090224606490748E9E7022127F09EFFD1
:10629000002002B010BD00BF1B9304100501038055
:1062A000349304100F01038007B590F8252090F86F
:1062B0002430934205D0002300930349034826F07D
:1062C00035FE03B05DF804FB06930410040103805F
:1062D00070B5022204464FF0FF330E4600681146A7
:1062E00027F0B8FF28F074F994F8243003F007027F
:1062F0000A32013344F82260054684F82430012133
:10630000206827F063FF94F8243094F825209B1A26
:10631000072B03D10221206827F086FF2846BDE81D
:10632000704028F06BB90000022273B500230446C8
:106330000E460068114627F08DFF021E01DB930711
:1063400009D4002300931449144826F0E7FD4FF0C8
:10635000FF3002B070BD28F03BF994F8243003F010
:1063600007020A32013344F82260054684F82430DB
:106370000121206827F02AFF94F8243094F8252082
:106380009B1A072B03D10221206827F04DFF2846D6
:1063900028F034F90020DCE74F9304100F0103804C
:1063A000F7B5164604460F4628F040F9002E14BFF4
:1063B00033464FF0FF33022205460121206827F0C3
:1063C00049FF021E01DBD30709D4002300931749BC
:1063D000174826F0A3FD4FF0FF3003B0F0BD28F0C2
:1063E000F7F806463FB194F8253003F007030A3367
:1063F00054F823303B6094F825302068013384F84A
:106400002530022127F0E2FE94F8242094F825306C
:106410009A4203D10121206827F006FF304628F078
:10642000EDF828F003F9401BD7E700BF40920410B5
:106430000D01038073B5022204460D46002301219D
:10644000006827F007FF021E01DBD30709D40023F1
:1064500000931649164826F061FD4FF0FF3002B058
:1064600070BD28F0B5F806463DB194F8253003F02C
:1064700007030A3354F823302B6094F82530206842
:10648000013384F82530022127F0A0FE94F824205F
:1064900094F825309A4203D10121206827F0C4FEE8
:1064A000304628F0ABF80020D9E700BF5E92041018
:1064B0000F01038037B504460D462422002137F032
:1064C0002DFB04F11403E36010232361221D2946F0
:1064D0004FF6FF7028F03AFF0346206028B900907D
:1064E00022460349034826F021FD002003B030BDB9
:1064F000B59304100F01038073B50E46054628F0CE
:1065000095F8002E044614BF31464FF0FF3128683D
:1065100028F034FF50B1002300932A46054906486D
:1065200026F0FCFC4FF0FF3002B070BD28F07EF882
:10653000001BF9E7949204100D01038013B5044683
:10654000006828F043FF30B100230093226803491C
:10655000034826F0EBFC02B010BD00BFCF9304103F
:10656000160103807047000013B530220446002155
:1065700037F0D4FA0C4B636004F11403E3601C237E
:106580002361201D28F068FD0346206048B9009073
:1065900022460649064826F0C1FC4FF0FF3002B003
:1065A00010BD0020FBE700BF7D930410889304100A
:1065B0000F01038013B504464FF0FF31006828F047
:1065C00063FD30B10023009322460349034826F0BF
:1065D000ADFC02B010BD00BF67930410150103802D
:1065E00013B50446006828F067FD30B1002300931E
:1065F00022460349034826F099FC02B010BD00BFB3
:106600009D9304101701038007B50B480B4B0360E3
:106610000B4B83601C23C36028F01EFD094A034610
:10662000106028B9009002460749084826F07EFC11
:1066300003B05DF804FB00BFC4740008CA920410E4
:10664000546E0008506E0008D99204101D0103809A
:10665000094B07B54FF0FF31186828F015FD30B130
:10666000002300931A460549054826F05FFC0120E7
:1066700003B05DF804FB00BF506E00087C9204106C
:1066800015010380074B07B5186828F015FD30B1D8
:10669000002300931A460449044826F047FC03B03F
:1066A0005DF804FB506E0008B092041017010380DF
:1066B00027F0BCBF08B529F041FB014B186008BDAD
:1066C0006039000808B529F039FB034B1B681B1A19
:1066D0005842584108BD00BF603900082DE9F34712
